S02B0000433A2F55736572732F726F6869722F4F6E6544726976652F446F63756D656E74732F6139672F61399E
S31588240000214365872D002488000000000000000015
S31588240010FD6305B305B205623019770060DA059762
S3158824002000EF03630000248810003082FD6304D027
S3158824003004670BB60BB40562031FE80F006D0AB478
S315882400400AB50BB6031FC40E00650AB2301904001C
S3158824005000DA0597049000EF03630065200000000A
S315882400601000308200003082A0022488100000000C
S3158824007014003082F7630FD0116210D1006832B42D
S31588240080609C016D239B40E990670148FF6A4CE890
S31588240090046A0EEAF42A08D209D20AD20BD20CD2DE
S315882400A00DD2006828B1E0990C960D957C4F489F0F
S315882400B004D605D50A9609950B9708D0906740EA01
S315882400C001482370EF6121B3009B006E01700160A3
S315882400D0016E1EB1C0D91CB180991DB5009C40E81B
S315882400E0016CC0991BB7409EC09F1BB540EA016C22
S315882400F0A0991AB3009DC09B19B540E8016C8099D4
S3158824010018B7409CC09F18B540EA016C00680EB1A8
S3158824011080990EB6E09E0C957C4C0D934A9C0A9643
S3158824012006D704D50B97099508D0906705D340EA56
S3158824013001482370EC614099E0F1146C119A40E8E7
S315882401400065C11714003082280030824002248832
S3158824015018003082580224881C0030826002248841
S315882401600000308268022488FA630AD00B6217B0AA
S31588240170A098006E016F16B408D604D705D606D67D
S3158824018007D44B9D006D13B401F0006F40EAC56710
S3158824019011B340DB0DB0809810B5539C016B809DBC
S315882401A06BEE40EA0805F62280980895599C40EA21
S315882401B0839D60980897599B40EA849FC098199E86
S315882401C040E80894E7170065140030827002248872
S315882401D0750024882400308220003082FB6308D06E
S315882401E00DB08098006E0DB5096204D605D606D65C
S315882401F007D54B9C006D01F0006F09B440EAC567AA
S31588240200609808B440DC499B40EA006509970890C1
S3158824021000EF0563140030828002248869012488CB
S31588240220200030820000000000000000000000004A
S31588240230000000000000000000000000000000000C
S315882402406C6564426C75654C6576656C20746F67DD
S31588240250676C653A25640000616161613A256400AA
S31588240260626262623A256400636363633A25640042
S315882402704750494F2054657374205461736B00002A
S315882402804D41494E2054657374205461736B000024
S3158824029000000000000000000000000000000000AC
S315882402A07B00000000000000000000000000000021
S705882400113D
